{
  "contractName": "GrapeGrowerRole",
  "abi": [
    {
      "inputs": [],
      "payable": false,
      "stateMutability": "nonpayable",
      "type": "constructor"
    },
    {
      "anonymous": false,
      "inputs": [
        {
          "indexed": true,
          "name": "account",
          "type": "address"
        }
      ],
      "name": "GrapeGrowerAdded",
      "type": "event"
    },
    {
      "anonymous": false,
      "inputs": [
        {
          "indexed": true,
          "name": "account",
          "type": "address"
        }
      ],
      "name": "GrapeGrowerRemoved",
      "type": "event"
    },
    {
      "constant": true,
      "inputs": [
        {
          "name": "account",
          "type": "address"
        }
      ],
      "name": "isGrapeGrower",
      "outputs": [
        {
          "name": "",
          "type": "bool"
        }
      ],
      "payable": false,
      "stateMutability": "view",
      "type": "function"
    },
    {
      "constant": false,
      "inputs": [
        {
          "name": "account",
          "type": "address"
        }
      ],
      "name": "addGrapeGrower",
      "outputs": [],
      "payable": false,
      "stateMutability": "nonpayable",
      "type": "function"
    },
    {
      "constant": false,
      "inputs": [],
      "name": "renounceGrapeGrower",
      "outputs": [],
      "payable": false,
      "stateMutability": "nonpayable",
      "type": "function"
    }
  ],
  "bytecode": "0x608060405234801561001057600080fd5b506100293361002e640100000000026401000000009004565b6101e8565b61004f81600061009564010000000002610350179091906401000000009004565b8073ffffffffffffffffffffffffffffffffffffffff167fb7b056cfbba98a4d0eb512df8540818a6eef7c586b86aaf81a34960c8c79dec860405160405180910390a250565b600073ffffffffffffffffffffffffffffffffffffffff168173ffffffffffffffffffffffffffffffffffffffff16141515156100d157600080fd5b6100ea8282610154640100000000026401000000009004565b1515156100f657600080fd5b60018260000160008373ffffffffffffffffffffffffffffffffffffffff1673ffffffffffffffffffffffffffffffffffffffff16815260200190815260200160002060006101000a81548160ff0219169083151502179055505050565b60008073ffffffffffffffffffffffffffffffffffffffff168273ffffffffffffffffffffffffffffffffffffffff161415151561019157600080fd5b8260000160008373ffffffffffffffffffffffffffffffffffffffff1673ffffffffffffffffffffffffffffffffffffffff16815260200190815260200160002060009054906101000a900460ff16905092915050565b61042c806101f76000396000f300608060405260043610610057576000357c0100000000000000000000000000000000000000000000000000000000900463ffffffff1680633a6397c71461005c578063951bb08114610073578063e37face3146100b6575b600080fd5b34801561006857600080fd5b50610071610111565b005b34801561007f57600080fd5b506100b4600480360381019080803573ffffffffffffffffffffffffffffffffffffffff16906020019092919050505061011c565b005b3480156100c257600080fd5b506100f7600480360381019080803573ffffffffffffffffffffffffffffffffffffffff16906020019092919050505061013c565b604051808215151515815260200191505060405180910390f35b61011a33610159565b565b6101253361013c565b151561013057600080fd5b610139816101b3565b50565b600061015282600061020d90919063ffffffff16565b9050919050565b61016d8160006102a190919063ffffffff16565b8073ffffffffffffffffffffffffffffffffffffffff167f2b66b68848b4890767b46ff6d5bf6dbb04c025c935bdb743e1dbf1e8b3f9202d60405160405180910390a250565b6101c781600061035090919063ffffffff16565b8073ffffffffffffffffffffffffffffffffffffffff167fb7b056cfbba98a4d0eb512df8540818a6eef7c586b86aaf81a34960c8c79dec860405160405180910390a250565b60008073ffffffffffffffffffffffffffffffffffffffff168273ffffffffffffffffffffffffffffffffffffffff161415151561024a57600080fd5b8260000160008373ffffffffffffffffffffffffffffffffffffffff1673ffffffffffffffffffffffffffffffffffffffff16815260200190815260200160002060009054906101000a900460ff16905092915050565b600073ffffffffffffffffffffffffffffffffffffffff168173ffffffffffffffffffffffffffffffffffffffff16141515156102dd57600080fd5b6102e7828261020d565b15156102f257600080fd5b60008260000160008373ffffffffffffffffffffffffffffffffffffffff1673ffffffffffffffffffffffffffffffffffffffff16815260200190815260200160002060006101000a81548160ff0219169083151502179055505050565b600073ffffffffffffffffffffffffffffffffffffffff168173ffffffffffffffffffffffffffffffffffffffff161415151561038c57600080fd5b610396828261020d565b1515156103a257600080fd5b60018260000160008373ffffffffffffffffffffffffffffffffffffffff1673ffffffffffffffffffffffffffffffffffffffff16815260200190815260200160002060006101000a81548160ff02191690831515021790555050505600a165627a7a72305820b20c2c3045591b9f0aa47f338962dae61033c4a2b54f5a86ed5994054eea46470029",
  "source": "pragma solidity ^0.4.24;\r\n\r\n// Import the library 'Roles'\r\nimport \"./Roles.sol\";\r\n\r\n// Define a contract 'GrapeGrowerRole' to manage this role - add, remove, check\r\ncontract GrapeGrowerRole {\r\n    using Roles for Roles.Role;\r\n\r\n    // Define 2 events, one for Adding, and other for Removing\r\n    event GrapeGrowerAdded(address indexed account);\r\n    event GrapeGrowerRemoved(address indexed account);\r\n\r\n    // Define a struct 'grapeGrowers' by inheriting from 'Roles' library, struct Role\r\n    Roles.Role private grapeGrowers;\r\n\r\n    // In the constructor make the address that deploys this contract the 1st grapeGrower\r\n    constructor() public {\r\n        _addGrapeGrower(msg.sender);\r\n    }\r\n\r\n     // Define a modifier that checks to see if msg.sender has the appropriate role\r\n    modifier onlyGrapeGrower() {\r\n        require(isGrapeGrower(msg.sender));\r\n        _;\r\n    }\r\n\r\n    // Define a function 'isGrapeGrower' to check this role\r\n    function isGrapeGrower(address account) public view returns (bool) {\r\n        return grapeGrowers.has(account);\r\n    }\r\n\r\n    // Define a function 'addGrapeGrower' that adds this role\r\n    function addGrapeGrower(address account) public onlyGrapeGrower {\r\n        _addGrapeGrower(account);\r\n    }\r\n\r\n    // Define a function 'renounceGrapeGrower' to renounce this role\r\n    function renounceGrapeGrower() public {\r\n        _removeGrapeGrower(msg.sender);\r\n    }\r\n\r\n    // Define an internal function '_addGrapeGrower' to add this role, called by 'addGrapeGrower'\r\n    function _addGrapeGrower(address account) internal {\r\n        grapeGrowers.add(account);\r\n        emit GrapeGrowerAdded(account);\r\n    }\r\n\r\n    // Define an internal function '_removeGrapeGrower' to remove this role, called by 'removeGrapeGrower'\r\n    function _removeGrapeGrower(address account) internal {\r\n        grapeGrowers.remove(account);\r\n        emit GrapeGrowerRemoved(account);\r\n    }\r\n\r\n}\r\n",
  "sourcePath": "C:\\Users\\Carlos\\OneDrive\\Documentos\\supplychain\\supplychain\\contracts\\accesscontrol\\GrapeGrowerRole.sol",
  "compiler": {
    "name": "solc",
    "version": "0.4.24+commit.e67f0147.Emscripten.clang"
  },
  "schemaVersion": "2.0.1",
  "updatedAt": "2019-08-25T04:16:29.247Z"
}